{
  "contractName": "Dex",
  "abi": [
    {
      "anonymous": false,
      "inputs": [
        {
          "indexed": true,
          "internalType": "address",
          "name": "previousOwner",
          "type": "address"
        },
        {
          "indexed": true,
          "internalType": "address",
          "name": "newOwner",
          "type": "address"
        }
      ],
      "name": "OwnershipTransferred",
      "type": "event"
    },
    {
      "inputs": [
        {
          "internalType": "bytes32",
          "name": "ticker",
          "type": "bytes32"
        },
        {
          "internalType": "address",
          "name": "tokenAddress",
          "type": "address"
        }
      ],
      "name": "addToken",
      "outputs": [],
      "stateMutability": "nonpayable",
      "type": "function"
    },
    {
      "inputs": [
        {
          "internalType": "address",
          "name": "",
          "type": "address"
        },
        {
          "internalType": "bytes32",
          "name": "",
          "type": "bytes32"
        }
      ],
      "name": "balances",
      "outputs": [
        {
          "internalType": "uint256",
          "name": "",
          "type": "uint256"
        }
      ],
      "stateMutability": "view",
      "type": "function"
    },
    {
      "inputs": [
        {
          "internalType": "uint256",
          "name": "amount",
          "type": "uint256"
        },
        {
          "internalType": "bytes32",
          "name": "ticker",
          "type": "bytes32"
        }
      ],
      "name": "deposit",
      "outputs": [],
      "stateMutability": "nonpayable",
      "type": "function"
    },
    {
      "inputs": [],
      "name": "depositEth",
      "outputs": [],
      "stateMutability": "payable",
      "type": "function"
    },
    {
      "inputs": [],
      "name": "nextOrderID",
      "outputs": [
        {
          "internalType": "uint256",
          "name": "",
          "type": "uint256"
        }
      ],
      "stateMutability": "view",
      "type": "function"
    },
    {
      "inputs": [
        {
          "internalType": "bytes32",
          "name": "",
          "type": "bytes32"
        },
        {
          "internalType": "uint256",
          "name": "",
          "type": "uint256"
        },
        {
          "internalType": "uint256",
          "name": "",
          "type": "uint256"
        }
      ],
      "name": "orderBook",
      "outputs": [
        {
          "internalType": "uint256",
          "name": "id",
          "type": "uint256"
        },
        {
          "internalType": "address",
          "name": "trader",
          "type": "address"
        },
        {
          "internalType": "enum Dex.Side",
          "name": "side",
          "type": "uint8"
        },
        {
          "internalType": "bytes32",
          "name": "ticker",
          "type": "bytes32"
        },
        {
          "internalType": "uint256",
          "name": "amount",
          "type": "uint256"
        },
        {
          "internalType": "uint256",
          "name": "price",
          "type": "uint256"
        },
        {
          "internalType": "uint256",
          "name": "filled",
          "type": "uint256"
        }
      ],
      "stateMutability": "view",
      "type": "function"
    },
    {
      "inputs": [],
      "name": "owner",
      "outputs": [
        {
          "internalType": "address",
          "name": "",
          "type": "address"
        }
      ],
      "stateMutability": "view",
      "type": "function"
    },
    {
      "inputs": [],
      "name": "renounceOwnership",
      "outputs": [],
      "stateMutability": "nonpayable",
      "type": "function"
    },
    {
      "inputs": [
        {
          "internalType": "uint256",
          "name": "",
          "type": "uint256"
        }
      ],
      "name": "tokenList",
      "outputs": [
        {
          "internalType": "bytes32",
          "name": "",
          "type": "bytes32"
        }
      ],
      "stateMutability": "view",
      "type": "function"
    },
    {
      "inputs": [
        {
          "internalType": "bytes32",
          "name": "",
          "type": "bytes32"
        }
      ],
      "name": "tokenMapping",
      "outputs": [
        {
          "internalType": "bytes32",
          "name": "ticker",
          "type": "bytes32"
        },
        {
          "internalType": "address",
          "name": "tokenAddress",
          "type": "address"
        }
      ],
      "stateMutability": "view",
      "type": "function"
    },
    {
      "inputs": [
        {
          "internalType": "address",
          "name": "newOwner",
          "type": "address"
        }
      ],
      "name": "transferOwnership",
      "outputs": [],
      "stateMutability": "nonpayable",
      "type": "function"
    },
    {
      "inputs": [
        {
          "internalType": "uint256",
          "name": "amount",
          "type": "uint256"
        },
        {
          "internalType": "bytes32",
          "name": "ticker",
          "type": "bytes32"
        }
      ],
      "name": "withdraw",
      "outputs": [],
      "stateMutability": "nonpayable",
      "type": "function"
    },
    {
      "inputs": [
        {
          "internalType": "uint256",
          "name": "amount",
          "type": "uint256"
        }
      ],
      "name": "withdrawEth",
      "outputs": [],
      "stateMutability": "nonpayable",
      "type": "function"
    },
    {
      "inputs": [
        {
          "internalType": "bytes32",
          "name": "ticker",
          "type": "bytes32"
        },
        {
          "internalType": "enum Dex.Side",
          "name": "side",
          "type": "uint8"
        }
      ],
      "name": "getOrderBook",
      "outputs": [
        {
          "components": [
            {
              "internalType": "uint256",
              "name": "id",
              "type": "uint256"
            },
            {
              "internalType": "address",
              "name": "trader",
              "type": "address"
            },
            {
              "internalType": "enum Dex.Side",
              "name": "side",
              "type": "uint8"
            },
            {
              "internalType": "bytes32",
              "name": "ticker",
              "type": "bytes32"
            },
            {
              "internalType": "uint256",
              "name": "amount",
              "type": "uint256"
            },
            {
              "internalType": "uint256",
              "name": "price",
              "type": "uint256"
            },
            {
              "internalType": "uint256",
              "name": "filled",
              "type": "uint256"
            }
          ],
          "internalType": "struct Dex.Order[]",
          "name": "",
          "type": "tuple[]"
        }
      ],
      "stateMutability": "view",
      "type": "function"
    },
    {
      "inputs": [
        {
          "internalType": "enum Dex.Side",
          "name": "side",
          "type": "uint8"
        },
        {
          "internalType": "bytes32",
          "name": "ticker",
          "type": "bytes32"
        },
        {
          "internalType": "uint256",
          "name": "amount",
          "type": "uint256"
        },
        {
          "internalType": "uint256",
          "name": "price",
          "type": "uint256"
        }
      ],
      "name": "createLimitOrder",
      "outputs": [],
      "stateMutability": "nonpayable",
      "type": "function"
    },
    {
      "inputs": [
        {
          "internalType": "enum Dex.Side",
          "name": "side",
          "type": "uint8"
        },
        {
          "internalType": "bytes32",
          "name": "ticker",
          "type": "bytes32"
        },
        {
          "internalType": "uint256",
          "name": "amount",
          "type": "uint256"
        }
      ],
      "name": "createMarketOrder",
      "outputs": [],
      "stateMutability": "nonpayable",
      "type": "function"
    }
  ],
  "bytecode": "0x608060405260006004553480156200001657600080fd5b50600062000029620000cd60201b60201c565b9050806000806101000a81548173ffffffffffffffffffffffffffffffffffffffff021916908373ffffffffffffffffffffffffffffffffffffffff1602179055508073ffffffffffffffffffffffffffffffffffffffff16600073ffffffffffffffffffffffffffffffffffffffff167f8be0079c531659141344cd1fd0a4f28419497f9722a3daafe3b4186f6b6457e060405160405180910390a350620000d5565b600033905090565b613fa780620000e56000396000f3fe6080604052600436106100f35760003560e01c806399ec2f1c1161008a578063c311d04911610059578063c311d04914610320578063c9630cb014610349578063f2fde38b14610372578063f47a0acc1461039b576100f3565b806399ec2f1c146102545780639ead72221461027d578063a8d2021a146102ba578063ba58ea68146102e3576100f3565b80636f3b62f9116100c65780636f3b62f9146101c0578063715018a6146101e95780638da5cb5b146102005780639776aacf1461022b576100f3565b80630bb431b6146100f85780631f14df691461013b578063439370b114610178578063667cb4ba14610182575b600080fd5b34801561010457600080fd5b5061011f600480360381019061011a91906135ec565b6103c6565b6040516101329796959493929190613b19565b60405180910390f35b34801561014757600080fd5b50610162600480360381019061015d91906134e6565b61045f565b60405161016f9190613afe565b60405180910390f35b610180610484565b005b34801561018e57600080fd5b506101a960048036038101906101a4919061354b565b61057d565b6040516101b7929190613a35565b60405180910390f35b3480156101cc57600080fd5b506101e760048036038101906101e2919061368a565b6105c1565b005b3480156101f557600080fd5b506101fe6114a2565b005b34801561020c57600080fd5b506102156115dc565b604051610222919061397d565b60405180910390f35b34801561023757600080fd5b50610252600480360381019061024d9190613574565b611605565b005b34801561026057600080fd5b5061027b6004803603810190610276919061363b565b611740565b005b34801561028957600080fd5b506102a4600480360381019061029f91906136ed565b6129dc565b6040516102b19190613a1a565b60405180910390f35b3480156102c657600080fd5b506102e160048036038101906102dc9190613716565b612a00565b005b3480156102ef57600080fd5b5061030a600480360381019061030591906135b0565b612cba565b60405161031791906139f8565b60405180910390f35b34801561032c57600080fd5b50610347600480360381019061034291906136ed565b612e85565b005b34801561035557600080fd5b50610370600480360381019061036b9190613716565b613032565b005b34801561037e57600080fd5b50610399600480360381019061039491906134bd565b61325b565b005b3480156103a757600080fd5b506103b0613404565b6040516103bd9190613afe565b60405180910390f35b600560205282600052604060002060205281600052604060002081815481106103ee57600080fd5b906000526020600020906006020160009250925050508060000154908060010160009054906101000a900473ffffffffffffffffffffffffffffffffffffffff16908060010160149054906101000a900460ff16908060020154908060030154908060040154908060050154905087565b6003602052816000526040600020602052806000526040600020600091509150505481565b61050734600360003373ffffffffffffffffffffffffffffffffffffffff1673ffffffffffffffffffffffffffffffffffffffff16815260200190815260200160002060007f455448000000000000000000000000000000000000000000000000000000000081526020019081526020016000205461340a90919063ffffffff16565b600360003373ffffffffffffffffffffffffffffffffffffffff1673ffffffffffffffffffffffffffffffffffffffff16815260200190815260200160002060007f4554480000000000000000000000000000000000000000000000000000000000815260200190815260200160002081905550565b60016020528060005260406000206000915090508060000154908060010160009054906101000a900473ffffffffffffffffffffffffffffffffffffffff16905082565b600060018111156105fb577f4e487b7100000000000000000000000000000000000000000000000000000000600052602160045260246000fd5b846001811115610634577f4e487b7100000000000000000000000000000000000000000000000000000000600052602160045260246000fd5b14156106ce5761064d818361342090919063ffffffff16565b600360003373ffffffffffffffffffffffffffffffffffffffff1673ffffffffffffffffffffffffffffffffffffffff16815260200190815260200160002060007f455448000000000000000000000000000000000000000000000000000000000081526020019081526020016000205410156106c957600080fd5b6107a5565b600180811115610707577f4e487b7100000000000000000000000000000000000000000000000000000000600052602160045260246000fd5b846001811115610740577f4e487b7100000000000000000000000000000000000000000000000000000000600052602160045260246000fd5b14156107a45781600360003373ffffffffffffffffffffffffffffffffffffffff1673ffffffffffffffffffffffffffffffffffffffff16815260200190815260200160002060008581526020019081526020016000205410156107a357600080fd5b5b5b60006005600085815260200190815260200160002060008660018111156107f5577f4e487b7100000000000000000000000000000000000000000000000000000000600052602160045260246000fd5b81526020019081526020016000209050806040518060e0016040528060045481526020013373ffffffffffffffffffffffffffffffffffffffff16815260200187600181111561086e577f4e487b7100000000000000000000000000000000000000000000000000000000600052602160045260246000fd5b8152602001868152602001858152602001848152602001600081525090806001815401808255809150506001900390600052602060002090600602016000909190919091506000820151816000015560208201518160010160006101000a81548173ffffffffffffffffffffffffffffffffffffffff021916908373ffffffffffffffffffffffffffffffffffffffff16021790555060408201518160010160146101000a81548160ff02191690836001811115610955577f4e487b7100000000000000000000000000000000000000000000000000000000600052602160045260246000fd5b0217905550606082015181600201556080820151816003015560a0820151816004015560c0820151816005015550506000808280549050116109985760006109aa565b600182805490506109a99190613c82565b5b9050600060018111156109e6577f4e487b7100000000000000000000000000000000000000000000000000000000600052602160045260246000fd5b866001811115610a1f577f4e487b7100000000000000000000000000000000000000000000000000000000600052602160045260246000fd5b1415610f19575b6000811115610f1457818181548110610a68577f4e487b7100000000000000000000000000000000000000000000000000000000600052603260045260246000fd5b90600052602060002090600602016004015482600183610a889190613c82565b81548110610abf577f4e487b7100000000000000000000000000000000000000000000000000000000600052603260045260246000fd5b9060005260206000209060060201600401541115610adc57610f14565b600082600183610aec9190613c82565b81548110610b23577f4e487b7100000000000000000000000000000000000000000000000000000000600052603260045260246000fd5b90600052602060002090600602016040518060e0016040529081600082015481526020016001820160009054906101000a900473ffffffffffffffffffffffffffffffffffffffff1673ffffffffffffffffffffffffffffffffffffffff1673ffffffffffffffffffffffffffffffffffffffff1681526020016001820160149054906101000a900460ff166001811115610be7577f4e487b7100000000000000000000000000000000000000000000000000000000600052602160045260246000fd5b6001811115610c1f577f4e487b7100000000000000000000000000000000000000000000000000000000600052602160045260246000fd5b81526020016002820154815260200160038201548152602001600482015481526020016005820154815250509050828281548110610c86577f4e487b7100000000000000000000000000000000000000000000000000000000600052603260045260246000fd5b906000526020600020906006020183600184610ca29190613c82565b81548110610cd9577f4e487b7100000000000000000000000000000000000000000000000000000000600052603260045260246000fd5b9060005260206000209060060201600082015481600001556001820160009054906101000a900473ffffffffffffffffffffffffffffffffffffffff168160010160006101000a81548173ffffffffffffffffffffffffffffffffffffffff021916908373ffffffffffffffffffffffffffffffffffffffff1602179055506001820160149054906101000a900460ff168160010160146101000a81548160ff02191690836001811115610db6577f4e487b7100000000000000000000000000000000000000000000000000000000600052602160045260246000fd5b02179055506002820154816002015560038201548160030155600482015481600401556005820154816005015590505080838381548110610e20577f4e487b7100000000000000000000000000000000000000000000000000000000600052603260045260246000fd5b90600052602060002090600602016000820151816000015560208201518160010160006101000a81548173ffffffffffffffffffffffffffffffffffffffff021916908373ffffffffffffffffffffffffffffffffffffffff16021790555060408201518160010160146101000a81548160ff02191690836001811115610ed0577f4e487b7100000000000000000000000000000000000000000000000000000000600052602160045260246000fd5b0217905550606082015181600201556080820151816003015560a0820151816004015560c082015181600501559050508180610f0b90613d2d565b92505050610a26565b611482565b600180811115610f52577f4e487b7100000000000000000000000000000000000000000000000000000000600052602160045260246000fd5b866001811115610f8b577f4e487b7100000000000000000000000000000000000000000000000000000000600052602160045260246000fd5b1415611481575b600081111561148057818181548110610fd4577f4e487b7100000000000000000000000000000000000000000000000000000000600052603260045260246000fd5b90600052602060002090600602016004015482600183610ff49190613c82565b8154811061102b577f4e487b7100000000000000000000000000000000000000000000000000000000600052603260045260246000fd5b906000526020600020906006020160040154101561104857611480565b6000826001836110589190613c82565b8154811061108f577f4e487b7100000000000000000000000000000000000000000000000000000000600052603260045260246000fd5b90600052602060002090600602016040518060e0016040529081600082015481526020016001820160009054906101000a900473ffffffffffffffffffffffffffffffffffffffff1673ffffffffffffffffffffffffffffffffffffffff1673ffffffffffffffffffffffffffffffffffffffff1681526020016001820160149054906101000a900460ff166001811115611153577f4e487b7100000000000000000000000000000000000000000000000000000000600052602160045260246000fd5b600181111561118b577f4e487b7100000000000000000000000000000000000000000000000000000000600052602160045260246000fd5b815260200160028201548152602001600382015481526020016004820154815260200160058201548152505090508282815481106111f2577f4e487b7100000000000000000000000000000000000000000000000000000000600052603260045260246000fd5b90600052602060002090600602018360018461120e9190613c82565b81548110611245577f4e487b7100000000000000000000000000000000000000000000000000000000600052603260045260246000fd5b9060005260206000209060060201600082015481600001556001820160009054906101000a900473ffffffffffffffffffffffffffffffffffffffff168160010160006101000a81548173ffffffffffffffffffffffffffffffffffffffff021916908373ffffffffffffffffffffffffffffffffffffffff1602179055506001820160149054906101000a900460ff168160010160146101000a81548160ff02191690836001811115611322577f4e487b7100000000000000000000000000000000000000000000000000000000600052602160045260246000fd5b0217905550600282015481600201556003820154816003015560048201548160040155600582015481600501559050508083838154811061138c577f4e487b7100000000000000000000000000000000000000000000000000000000600052603260045260246000fd5b90600052602060002090600602016000820151816000015560208201518160010160006101000a81548173ffffffffffffffffffffffffffffffffffffffff021916908373ffffffffffffffffffffffffffffffffffffffff16021790555060408201518160010160146101000a81548160ff0219169083600181111561143c577f4e487b7100000000000000000000000000000000000000000000000000000000600052602160045260246000fd5b0217905550606082015181600201556080820151816003015560a0820151816004015560c08201518160050155905050818061147790613d2d565b92505050610f92565b5b5b6004600081548092919061149590613d57565b9190505550505050505050565b6114aa613436565b73ffffffffffffffffffffffffffffffffffffffff166114c86115dc565b73ffffffffffffffffffffffffffffffffffffffff161461151e576040517f08c379a000000000000000000000000000000000000000000000000000000000815260040161151590613a9e565b60405180910390fd5b600073ffffffffffffffffffffffffffffffffffffffff1660008054906101000a900473ffffffffffffffffffffffffffffffffffffffff1673ffffffffffffffffffffffffffffffffffffffff167f8be0079c531659141344cd1fd0a4f28419497f9722a3daafe3b4186f6b6457e060405160405180910390a360008060006101000a81548173ffffffffffffffffffffffffffffffffffffffff021916908373ffffffffffffffffffffffffffffffffffffffff160217905550565b60008060009054906101000a900473ffffffffffffffffffffffffffffffffffffffff16905090565b61160d613436565b73ffffffffffffffffffffffffffffffffffffffff1661162b6115dc565b73ffffffffffffffffffffffffffffffffffffffff1614611681576040517f08c379a000000000000000000000000000000000000000000000000000000000815260040161167890613a9e565b60405180910390fd5b60405180604001604052808381526020018273ffffffffffffffffffffffffffffffffffffffff16815250600160008481526020019081526020016000206000820151816000015560208201518160010160006101000a81548173ffffffffffffffffffffffffffffffffffffffff021916908373ffffffffffffffffffffffffffffffffffffffff16021790555090505060028290806001815401808255809150506001900390600052602060002001600090919091909150555050565b600180811115611779577f4e487b7100000000000000000000000000000000000000000000000000000000600052602160045260246000fd5b8360018111156117b2577f4e487b7100000000000000000000000000000000000000000000000000000000600052602160045260246000fd5b141561184c5780600360003373ffffffffffffffffffffffffffffffffffffffff1673ffffffffffffffffffffffffffffffffffffffff168152602001908152602001600020600084815260200190815260200160002054101561184b576040517f08c379a000000000000000000000000000000000000000000000000000000000815260040161184290613a7e565b60405180910390fd5b5b6000806001811115611887577f4e487b7100000000000000000000000000000000000000000000000000000000600052602160045260246000fd5b8460018111156118c0577f4e487b7100000000000000000000000000000000000000000000000000000000600052602160045260246000fd5b14156118cf57600190506118d4565b600090505b600060056000858152602001908152602001600020600083815260200190815260200160002090506000805b82805490508110801561191257508482105b156126a457600061192c838761343e90919063ffffffff16565b905060006119d785848154811061196c577f4e487b7100000000000000000000000000000000000000000000000000000000600052603260045260246000fd5b9060005260206000209060060201600501548685815481106119b7577f4e487b7100000000000000000000000000000000000000000000000000000000600052603260045260246000fd5b90600052602060002090600602016003015461343e90919063ffffffff16565b90506000828211156119eb578290506119ef565b8190505b611a02818661340a90919063ffffffff16565b9450611a6181878681548110611a41577f4e487b7100000000000000000000000000000000000000000000000000000000600052603260045260246000fd5b90600052602060002090600602016005015461340a90919063ffffffff16565b868581548110611a9a577f4e487b7100000000000000000000000000000000000000000000000000000000600052603260045260246000fd5b9060005260206000209060060201600501819055506000611b0e878681548110611aed577f4e487b7100000000000000000000000000000000000000000000000000000000600052603260045260246000fd5b9060005260206000209060060201600401548361342090919063ffffffff16565b905060006001811115611b4a577f4e487b7100000000000000000000000000000000000000000000000000000000600052602160045260246000fd5b8b6001811115611b83577f4e487b7100000000000000000000000000000000000000000000000000000000600052602160045260246000fd5b141561210f5780600360003373ffffffffffffffffffffffffffffffffffffffff1673ffffffffffffffffffffffffffffffffffffffff16815260200190815260200160002060007f45544800000000000000000000000000000000000000000000000000000000008152602001908152602001600020541015611c0657600080fd5b611c6982600360003373ffffffffffffffffffffffffffffffffffffffff1673ffffffffffffffffffffffffffffffffffffffff16815260200190815260200160002060008d81526020019081526020016000205461340a90919063ffffffff16565b600360003373ffffffffffffffffffffffffffffffffffffffff1673ffffffffffffffffffffffffffffffffffffffff16815260200190815260200160002060008c815260200190815260200160002081905550611d4081600360003373ffffffffffffffffffffffffffffffffffffffff1673ffffffffffffffffffffffffffffffffffffffff16815260200190815260200160002060007f455448000000000000000000000000000000000000000000000000000000000081526020019081526020016000205461343e90919063ffffffff16565b600360003373ffffffffffffffffffffffffffffffffffffffff1673ffffffffffffffffffffffffffffffffffffffff16815260200190815260200160002060007f4554480000000000000000000000000000000000000000000000000000000000815260200190815260200160002081905550611e8182600360008a8981548110611df5577f4e487b7100000000000000000000000000000000000000000000000000000000600052603260045260246000fd5b906000526020600020906006020160010160009054906101000a900473ffffffffffffffffffffffffffffffffffffffff1673ffffffffffffffffffffffffffffffffffffffff1673ffffffffffffffffffffffffffffffffffffffff16815260200190815260200160002060008d81526020019081526020016000205461343e90919063ffffffff16565b60036000898881548110611ebe577f4e487b7100000000000000000000000000000000000000000000000000000000600052603260045260246000fd5b906000526020600020906006020160010160009054906101000a900473ffffffffffffffffffffffffffffffffffffffff1673ffffffffffffffffffffffffffffffffffffffff1673ffffffffffffffffffffffffffffffffffffffff16815260200190815260200160002060008c81526020019081526020016000208190555061202c81600360008a8981548110611f80577f4e487b7100000000000000000000000000000000000000000000000000000000600052603260045260246000fd5b906000526020600020906006020160010160009054906101000a900473ffffffffffffffffffffffffffffffffffffffff1673ffffffffffffffffffffffffffffffffffffffff1673ffffffffffffffffffffffffffffffffffffffff16815260200190815260200160002060007f455448000000000000000000000000000000000000000000000000000000000081526020019081526020016000205461340a90919063ffffffff16565b60036000898881548110612069577f4e487b7100000000000000000000000000000000000000000000000000000000600052603260045260246000fd5b906000526020600020906006020160010160009054906101000a900473ffffffffffffffffffffffffffffffffffffffff1673ffffffffffffffffffffffffffffffffffffffff1673ffffffffffffffffffffffffffffffffffffffff16815260200190815260200160002060007f455448000000000000000000000000000000000000000000000000000000000081526020019081526020016000208190555061268d565b600180811115612148577f4e487b7100000000000000000000000000000000000000000000000000000000600052602160045260246000fd5b8b6001811115612181577f4e487b7100000000000000000000000000000000000000000000000000000000600052602160045260246000fd5b141561268c576121ea82600360003373ffffffffffffffffffffffffffffffffffffffff1673ffffffffffffffffffffffffffffffffffffffff16815260200190815260200160002060008d81526020019081526020016000205461343e90919063ffffffff16565b600360003373ffffffffffffffffffffffffffffffffffffffff1673ffffffffffffffffffffffffffffffffffffffff16815260200190815260200160002060008c8152602001908152602001600020819055506122c181600360003373ffffffffffffffffffffffffffffffffffffffff1673ffffffffffffffffffffffffffffffffffffffff16815260200190815260200160002060007f455448000000000000000000000000000000000000000000000000000000000081526020019081526020016000205461340a90919063ffffffff16565b600360003373ffffffffffffffffffffffffffffffffffffffff1673ffffffffffffffffffffffffffffffffffffffff16815260200190815260200160002060007f455448000000000000000000000000000000000000000000000000000000000081526020019081526020016000208190555061240282600360008a8981548110612376577f4e487b7100000000000000000000000000000000000000000000000000000000600052603260045260246000fd5b906000526020600020906006020160010160009054906101000a900473ffffffffffffffffffffffffffffffffffffffff1673ffffffffffffffffffffffffffffffffffffffff1673ffffffffffffffffffffffffffffffffffffffff16815260200190815260200160002060008d81526020019081526020016000205461340a90919063ffffffff16565b6003600089888154811061243f577f4e487b7100000000000000000000000000000000000000000000000000000000600052603260045260246000fd5b906000526020600020906006020160010160009054906101000a900473ffffffffffffffffffffffffffffffffffffffff1673ffffffffffffffffffffffffffffffffffffffff1673ffffffffffffffffffffffffffffffffffffffff16815260200190815260200160002060008c8152602001908152602001600020819055506125ad81600360008a8981548110612501577f4e487b7100000000000000000000000000000000000000000000000000000000600052603260045260246000fd5b906000526020600020906006020160010160009054906101000a900473ffffffffffffffffffffffffffffffffffffffff1673ffffffffffffffffffffffffffffffffffffffff1673ffffffffffffffffffffffffffffffffffffffff16815260200190815260200160002060007f455448000000000000000000000000000000000000000000000000000000000081526020019081526020016000205461343e90919063ffffffff16565b600360008988815481106125ea577f4e487b7100000000000000000000000000000000000000000000000000000000600052603260045260246000fd5b906000526020600020906006020160010160009054906101000a900473ffffffffffffffffffffffffffffffffffffffff1673ffffffffffffffffffffffffffffffffffffffff1673ffffffffffffffffffffffffffffffffffffffff16815260200190815260200160002060007f45544800000000000000000000000000000000000000000000000000000000008152602001908152602001600020819055505b5b50505050808061269c90613d57565b915050611900565b505b6000828054905011801561274f5750816000815481106126ef577f4e487b7100000000000000000000000000000000000000000000000000000000600052603260045260246000fd5b9060005260206000209060060201600301548260008154811061273b577f4e487b7100000000000000000000000000000000000000000000000000000000600052603260045260246000fd5b906000526020600020906006020160050154145b156129d45760005b600183805490506127689190613c82565b81101561291b578260018261277d9190613bd2565b815481106127b4577f4e487b7100000000000000000000000000000000000000000000000000000000600052603260045260246000fd5b90600052602060002090600602018382815481106127fb577f4e487b7100000000000000000000000000000000000000000000000000000000600052603260045260246000fd5b9060005260206000209060060201600082015481600001556001820160009054906101000a900473ffffffffffffffffffffffffffffffffffffffff168160010160006101000a81548173ffffffffffffffffffffffffffffffffffffffff021916908373ffffffffffffffffffffffffffffffffffffffff1602179055506001820160149054906101000a900460ff168160010160146101000a81548160ff021916908360018111156128d8577f4e487b7100000000000000000000000000000000000000000000000000000000600052602160045260246000fd5b021790555060028201548160020155600382015481600301556004820154816004015560058201548160050155905050808061291390613d57565b915050612757565b5081805480612953577f4e487b7100000000000000000000000000000000000000000000000000000000600052603160045260246000fd5b60019003818190600052602060002090600602016000808201600090556001820160006101000a81549073ffffffffffffffffffffffffffffffffffffffff02191690556001820160146101000a81549060ff02191690556002820160009055600382016000905560048201600090556005820160009055505090556126a6565b505050505050565b600281815481106129ec57600080fd5b906000526020600020016000915090505481565b80600073ffffffffffffffffffffffffffffffffffffffff166001600083815260200190815260200160002060010160009054906101000a900473ffffffffffffffffffffffffffffffffffffffff1673ffffffffffffffffffffffffffffffffffffffff161415612aa7576040517f08c379a0000000000000000000000000000000000000000000000000000000008152600401612a9e90613ade565b60405180910390fd5b600360003373ffffffffffffffffffffffffffffffffffffffff1673ffffffffffffffffffffffffffffffffffffffff168152602001908152602001600020600083815260200190815260200160002054831115612b3a576040517f08c379a0000000000000000000000000000000000000000000000000000000008152600401612b3190613abe565b60405180910390fd5b612b9d83600360003373ffffffffffffffffffffffffffffffffffffffff1673ffffffffffffffffffffffffffffffffffffffff16815260200190815260200160002060008581526020019081526020016000205461343e90919063ffffffff16565b600360003373ffffffffffffffffffffffffffffffffffffffff1673ffffffffffffffffffffffffffffffffffffffff1681526020019081526020016000206000848152602001908152602001600020819055506001600083815260200190815260200160002060010160009054906101000a900473ffffffffffffffffffffffffffffffffffffffff1673ffffffffffffffffffffffffffffffffffffffff1663a9059cbb33856040518363ffffffff1660e01b8152600401612c629291906139cf565b602060405180830381600087803b158015612c7c57600080fd5b505af1158015612c90573d6000803e3d6000fd5b505050506040513d601f19601f82011682018060405250810190612cb49190613522565b50505050565b6060600560008481526020019081526020016000206000836001811115612d0a577f4e487b7100000000000000000000000000000000000000000000000000000000600052602160045260246000fd5b8152602001908152602001600020805480602002602001604051908101604052809291908181526020016000905b82821015612e7957838290600052602060002090600602016040518060e0016040529081600082015481526020016001820160009054906101000a900473ffffffffffffffffffffffffffffffffffffffff1673ffffffffffffffffffffffffffffffffffffffff1673ffffffffffffffffffffffffffffffffffffffff1681526020016001820160149054906101000a900460ff166001811115612e06577f4e487b7100000000000000000000000000000000000000000000000000000000600052602160045260246000fd5b6001811115612e3e577f4e487b7100000000000000000000000000000000000000000000000000000000600052602160045260246000fd5b815260200160028201548152602001600382015481526020016004820154815260200160058201548152505081526020019060010190612d38565b50505050905092915050565b80600360003373ffffffffffffffffffffffffffffffffffffffff1673ffffffffffffffffffffffffffffffffffffffff16815260200190815260200160002060007f45544800000000000000000000000000000000000000000000000000000000008152602001908152602001600020541015612f38576040517f08c379a0000000000000000000000000000000000000000000000000000000008152600401612f2f90613a7e565b60405180910390fd5b612fbb81600360003373ffffffffffffffffffffffffffffffffffffffff1673ffffffffffffffffffffffffffffffffffffffff16815260200190815260200160002060007f455448000000000000000000000000000000000000000000000000000000000081526020019081526020016000205461343e90919063ffffffff16565b600360003373ffffffffffffffffffffffffffffffffffffffff1673ffffffffffffffffffffffffffffffffffffffff16815260200190815260200160002060007f455448000000000000000000000000000000000000000000000000000000000081526020019081526020016000208190555050565b80600073ffffffffffffffffffffffffffffffffffffffff166001600083815260200190815260200160002060010160009054906101000a900473ffffffffffffffffffffffffffffffffffffffff1673ffffffffffffffffffffffffffffffffffffffff1614156130d9576040517f08c379a00000000000000000000000000000000000000000000000000000000081526004016130d090613ade565b60405180910390fd5b6001600083815260200190815260200160002060010160009054906101000a900473ffffffffffffffffffffffffffffffffffffffff1673ffffffffffffffffffffffffffffffffffffffff166323b872dd3330866040518463ffffffff1660e01b815260040161314c93929190613998565b602060405180830381600087803b15801561316657600080fd5b505af115801561317a573d6000803e3d6000fd5b505050506040513d601f19601f8201168201806040525081019061319e9190613522565b5061320283600360003373ffffffffffffffffffffffffffffffffffffffff1673ffffffffffffffffffffffffffffffffffffffff16815260200190815260200160002060008581526020019081526020016000205461340a90919063ffffffff16565b600360003373ffffffffffffffffffffffffffffffffffffffff1673ffffffffffffffffffffffffffffffffffffffff168152602001908152602001600020600084815260200190815260200160002081905550505050565b613263613436565b73ffffffffffffffffffffffffffffffffffffffff166132816115dc565b73ffffffffffffffffffffffffffffffffffffffff16146132d7576040517f08c379a00000000000000000000000000000000000000000000000000000000081526004016132ce90613a9e565b60405180910390fd5b600073ffffffffffffffffffffffffffffffffffffffff168173ffffffffffffffffffffffffffffffffffffffff161415613347576040517f08c379a000000000000000000000000000000000000000000000000000000000815260040161333e90613a5e565b60405180910390fd5b8073ffffffffffffffffffffffffffffffffffffffff1660008054906101000a900473ffffffffffffffffffffffffffffffffffffffff1673ffffffffffffffffffffffffffffffffffffffff167f8be0079c531659141344cd1fd0a4f28419497f9722a3daafe3b4186f6b6457e060405160405180910390a3806000806101000a81548173ffffffffffffffffffffffffffffffffffffffff021916908373ffffffffffffffffffffffffffffffffffffffff16021790555050565b60045481565b600081836134189190613bd2565b905092915050565b6000818361342e9190613c28565b905092915050565b600033905090565b6000818361344c9190613c82565b905092915050565b60008135905061346381613f05565b92915050565b60008151905061347881613f1c565b92915050565b60008135905061348d81613f33565b92915050565b6000813590506134a281613f4a565b92915050565b6000813590506134b781613f5a565b92915050565b6000602082840312156134cf57600080fd5b60006134dd84828501613454565b91505092915050565b600080604083850312156134f957600080fd5b600061350785828601613454565b92505060206135188582860161347e565b9150509250929050565b60006020828403121561353457600080fd5b600061354284828501613469565b91505092915050565b60006020828403121561355d57600080fd5b600061356b8482850161347e565b91505092915050565b6000806040838503121561358757600080fd5b60006135958582860161347e565b92505060206135a685828601613454565b9150509250929050565b600080604083850312156135c357600080fd5b60006135d18582860161347e565b92505060206135e285828601613493565b9150509250929050565b60008060006060848603121561360157600080fd5b600061360f8682870161347e565b9350506020613620868287016134a8565b9250506040613631868287016134a8565b9150509250925092565b60008060006060848603121561365057600080fd5b600061365e86828701613493565b935050602061366f8682870161347e565b9250506040613680868287016134a8565b9150509250925092565b600080600080608085870312156136a057600080fd5b60006136ae87828801613493565b94505060206136bf8782880161347e565b93505060406136d0878288016134a8565b92505060606136e1878288016134a8565b91505092959194509250565b6000602082840312156136ff57600080fd5b600061370d848285016134a8565b91505092915050565b6000806040838503121561372957600080fd5b6000613737858286016134a8565b92505060206137488582860161347e565b9150509250929050565b600061375e83836138d1565b60e08301905092915050565b61377381613cb6565b82525050565b61378281613cb6565b82525050565b600061379382613b98565b61379d8185613bb0565b93506137a883613b88565b8060005b838110156137d95781516137c08882613752565b97506137cb83613ba3565b9250506001810190506137ac565b5085935050505092915050565b6137ef81613cd4565b82525050565b6137fe81613cd4565b82525050565b61380d81613d1b565b82525050565b61381c81613d1b565b82525050565b600061382f602683613bc1565b915061383a82613dfe565b604082019050919050565b6000613852601283613bc1565b915061385d82613e4d565b602082019050919050565b6000613875602083613bc1565b915061388082613e76565b602082019050919050565b6000613898601483613bc1565b91506138a382613e9f565b602082019050919050565b60006138bb601483613bc1565b91506138c682613ec8565b602082019050919050565b60e0820160008201516138e7600085018261395f565b5060208201516138fa602085018261376a565b50604082015161390d6040850182613804565b50606082015161392060608501826137e6565b506080820151613933608085018261395f565b5060a082015161394660a085018261395f565b5060c082015161395960c085018261395f565b50505050565b61396881613d11565b82525050565b61397781613d11565b82525050565b60006020820190506139926000830184613779565b92915050565b60006060820190506139ad6000830186613779565b6139ba6020830185613779565b6139c7604083018461396e565b949350505050565b60006040820190506139e46000830185613779565b6139f1602083018461396e565b9392505050565b60006020820190508181036000830152613a128184613788565b905092915050565b6000602082019050613a2f60008301846137f5565b92915050565b6000604082019050613a4a60008301856137f5565b613a576020830184613779565b9392505050565b60006020820190508181036000830152613a7781613822565b9050919050565b60006020820190508181036000830152613a9781613845565b9050919050565b60006020820190508181036000830152613ab781613868565b9050919050565b60006020820190508181036000830152613ad78161388b565b9050919050565b60006020820190508181036000830152613af7816138ae565b9050919050565b6000602082019050613b13600083018461396e565b92915050565b600060e082019050613b2e600083018a61396e565b613b3b6020830189613779565b613b486040830188613813565b613b5560608301876137f5565b613b62608083018661396e565b613b6f60a083018561396e565b613b7c60c083018461396e565b98975050505050505050565b6000819050602082019050919050565b600081519050919050565b6000602082019050919050565b600082825260208201905092915050565b600082825260208201905092915050565b6000613bdd82613d11565b9150613be883613d11565b9250827fffffffffffffffffffffffffffffffffffffffffffffffffffffffffffffffff03821115613c1d57613c1c613da0565b5b828201905092915050565b6000613c3382613d11565b9150613c3e83613d11565b9250817fffffffffffffffffffffffffffffffffffffffffffffffffffffffffffffffff0483118215151615613c7757613c76613da0565b5b828202905092915050565b6000613c8d82613d11565b9150613c9883613d11565b925082821015613cab57613caa613da0565b5b828203905092915050565b6000613cc182613cf1565b9050919050565b60008115159050919050565b6000819050919050565b6000819050613cec82613ef1565b919050565b600073ffffffffffffffffffffffffffffffffffffffff82169050919050565b6000819050919050565b6000613d2682613cde565b9050919050565b6000613d3882613d11565b91506000821415613d4c57613d4b613da0565b5b600182039050919050565b6000613d6282613d11565b91507fffffffffffffffffffffffffffffffffffffffffffffffffffffffffffffffff821415613d9557613d94613da0565b5b600182019050919050565b7f4e487b7100000000000000000000000000000000000000000000000000000000600052601160045260246000fd5b7f4e487b7100000000000000000000000000000000000000000000000000000000600052602160045260246000fd5b7f4f776e61626c653a206e6577206f776e657220697320746865207a65726f206160008201527f6464726573730000000000000000000000000000000000000000000000000000602082015250565b7f496e7375666669656e742062616c616e63650000000000000000000000000000600082015250565b7f4f776e61626c653a2063616c6c6572206973206e6f7420746865206f776e6572600082015250565b7f496e73756666696369656e742042616c616e6365000000000000000000000000600082015250565b7f546f6b656e20646f6573206e6f74204578697374000000000000000000000000600082015250565b60028110613f0257613f01613dcf565b5b50565b613f0e81613cb6565b8114613f1957600080fd5b50565b613f2581613cc8565b8114613f3057600080fd5b50565b613f3c81613cd4565b8114613f4757600080fd5b50565b60028110613f5757600080fd5b50565b613f6381613d11565b8114613f6e57600080fd5b5056fea264697066735822122034edced799cf90850204d943568cd633468e83d2be96089b469007d32630f87e64736f6c63430008040033",
  "immutableReferences": {},
  "source": "// SPDX-License-Identifier: MIT\r\npragma solidity 0.8.4;\r\npragma experimental ABIEncoderV2;\r\nimport \"./wallet.sol\";\r\ncontract Dex is Wallet{\r\n    using SafeMath for uint256;\r\n    enum Side{\r\n        BUY,\r\n        SELL\r\n    }\r\n    struct Order{\r\n        uint id;\r\n        address trader;\r\n        Side side;\r\n        bytes32 ticker;\r\n        uint amount;\r\n        uint price;\r\n        uint filled;\r\n    }\r\n    uint public nextOrderID =0;\r\n    mapping(bytes32 => mapping (uint => Order[])) public orderBook;\r\n\r\n    function getOrderBook(bytes32 ticker, Side side)view public returns(Order[]memory){\r\n        return orderBook[ticker][uint(side)];\r\n    }\r\n    function createLimitOrder(Side side, bytes32 ticker, uint amount, uint price)public{\r\n        if(side == Side.BUY){\r\n            require(balances[msg.sender][\"ETH\"] >= amount.mul(price));\r\n        }\r\n        else if(side == Side.SELL){\r\n            require(balances[msg.sender][ticker]>= amount);\r\n        }\r\n        Order[]storage orders = orderBook[ticker][uint(side)];\r\n        orders.push(\r\n            Order(nextOrderID,msg.sender, side , ticker, amount, price, 0)\r\n        );\r\n        //Bubble sort\r\n        uint i = orders.length>0 ?orders.length-1 : 0;\r\n        if(side == Side.BUY){\r\n            while (i > 0){\r\n                if(orders[i-1].price  > orders[i].price){\r\n                    break;\r\n                }\r\n                Order memory orderToMove = orders[i-1];\r\n                orders[i - 1]= orders[i];\r\n                orders[i] = orderToMove;\r\n                i--;\r\n            }\r\n        }\r\n        else if(side == Side.SELL){\r\n            while(i>0){\r\n                if(orders[i-1].price< orders[i].price){\r\n                    break;\r\n                }\r\n                Order memory orderToMove = orders[i -1];\r\n                orders[i  - 1] = orders[i];\r\n                orders[i] = orderToMove;\r\n                i--;\r\n            }\r\n        }\r\n        nextOrderID++;\r\n    }\r\n    function createMarketOrder(Side side, bytes32 ticker, uint amount)public{\r\n        if(side == Side.SELL){\r\n            require(balances[msg.sender][ticker] >= amount, \"Insuffient balance\");\r\n        }\r\n        \r\n        uint orderBookSide;\r\n        if(side == Side.BUY){\r\n            orderBookSide = 1;\r\n        }\r\n        else{\r\n            orderBookSide = 0;\r\n        }\r\n        Order[] storage orders = orderBook[ticker][orderBookSide];\r\n\r\n        uint totalFilled = 0;\r\n\r\n        for (uint256 i = 0; i < orders.length && totalFilled < amount; i++) {\r\n            uint leftToFill = amount.sub(totalFilled);\r\n            uint availableToFill = orders[i].amount.sub(orders[i].filled);\r\n            uint filled = 0;\r\n            if(availableToFill > leftToFill){\r\n                filled = leftToFill; //Fill the entire market order\r\n            }\r\n            else{ \r\n                filled = availableToFill; //Fill as much as is available in order[i]\r\n            }\r\n\r\n            totalFilled = totalFilled.add(filled);\r\n            orders[i].filled = orders[i].filled.add(filled);\r\n            uint cost = filled.mul(orders[i].price);\r\n\r\n            if(side == Side.BUY){\r\n                //Verify that the buyer has enough ETH to cover the purchase (require)\r\n                require(balances[msg.sender][\"ETH\"] >= cost);\r\n                //msg.sender is the buyer\r\n                balances[msg.sender][ticker] = balances[msg.sender][ticker].add(filled);\r\n                balances[msg.sender][\"ETH\"] = balances[msg.sender][\"ETH\"].sub(cost);\r\n                \r\n                balances[orders[i].trader][ticker] = balances[orders[i].trader][ticker].sub(filled);\r\n                balances[orders[i].trader][\"ETH\"] = balances[orders[i].trader][\"ETH\"].add(cost);\r\n            }\r\n            else if(side == Side.SELL){\r\n                //Msg.sender is the seller\r\n                balances[msg.sender][ticker] = balances[msg.sender][ticker].sub(filled);\r\n                balances[msg.sender][\"ETH\"] = balances[msg.sender][\"ETH\"].add(cost);\r\n                \r\n                balances[orders[i].trader][ticker] = balances[orders[i].trader][ticker].add(filled);\r\n                balances[orders[i].trader][\"ETH\"] = balances[orders[i].trader][\"ETH\"].sub(cost);\r\n            }\r\n            \r\n        }\r\n            //Remove 100% filled orders from the orderbook\r\n        while(orders.length > 0 && orders[0].filled == orders[0].amount){\r\n            //Remove the top element in the orders array by overwriting every element\r\n            // with the next element in the order list\r\n            for (uint256 i = 0; i < orders.length - 1; i++) {\r\n                orders[i] = orders[i + 1];\r\n            }\r\n            orders.pop();\r\n        }\r\n        \r\n    }\r\n\r\n    \r\n}",
  "sourcePath": "C:/Users/hp/Desktop/Ethereum/Solidity/Dex/contracts/dex.sol",
  "compiler": {
    "name": "solc",
    "version": "0.8.4+commit.c7e474f2.Emscripten.clang"
  },
  "schemaVersion": "3.4.1",
  "updatedAt": "2021-06-04T07:06:02.429Z",
  "devdoc": {
    "kind": "dev",
    "methods": {
      "owner()": {
        "details": "Returns the address of the current owner."
      },
      "renounceOwnership()": {
        "details": "Leaves the contract without owner. It will not be possible to call `onlyOwner` functions anymore. Can only be called by the current owner. NOTE: Renouncing ownership will leave the contract without an owner, thereby removing any functionality that is only available to the owner."
      },
      "transferOwnership(address)": {
        "details": "Transfers ownership of the contract to a new account (`newOwner`). Can only be called by the current owner."
      }
    },
    "version": 1
  },
  "userdoc": {
    "kind": "user",
    "methods": {},
    "version": 1
  }
}