{
  "contractName": "Wallet",
  "abi": [
    {
      "anonymous": false,
      "inputs": [
        {
          "indexed": true,
          "internalType": "address",
          "name": "previousOwner",
          "type": "address"
        },
        {
          "indexed": true,
          "internalType": "address",
          "name": "newOwner",
          "type": "address"
        }
      ],
      "name": "OwnershipTransferred",
      "type": "event"
    },
    {
      "inputs": [
        {
          "internalType": "address",
          "name": "",
          "type": "address"
        },
        {
          "internalType": "bytes32",
          "name": "",
          "type": "bytes32"
        }
      ],
      "name": "balances",
      "outputs": [
        {
          "internalType": "uint256",
          "name": "",
          "type": "uint256"
        }
      ],
      "stateMutability": "view",
      "type": "function"
    },
    {
      "inputs": [],
      "name": "owner",
      "outputs": [
        {
          "internalType": "address",
          "name": "",
          "type": "address"
        }
      ],
      "stateMutability": "view",
      "type": "function"
    },
    {
      "inputs": [],
      "name": "renounceOwnership",
      "outputs": [],
      "stateMutability": "nonpayable",
      "type": "function"
    },
    {
      "inputs": [
        {
          "internalType": "uint256",
          "name": "",
          "type": "uint256"
        }
      ],
      "name": "tokenList",
      "outputs": [
        {
          "internalType": "bytes32",
          "name": "",
          "type": "bytes32"
        }
      ],
      "stateMutability": "view",
      "type": "function"
    },
    {
      "inputs": [
        {
          "internalType": "bytes32",
          "name": "",
          "type": "bytes32"
        }
      ],
      "name": "tokenMapping",
      "outputs": [
        {
          "internalType": "bytes32",
          "name": "ticker",
          "type": "bytes32"
        },
        {
          "internalType": "address",
          "name": "tokenAddress",
          "type": "address"
        }
      ],
      "stateMutability": "view",
      "type": "function"
    },
    {
      "inputs": [
        {
          "internalType": "address",
          "name": "newOwner",
          "type": "address"
        }
      ],
      "name": "transferOwnership",
      "outputs": [],
      "stateMutability": "nonpayable",
      "type": "function"
    },
    {
      "inputs": [
        {
          "internalType": "bytes32",
          "name": "ticker",
          "type": "bytes32"
        },
        {
          "internalType": "address",
          "name": "tokenAddress",
          "type": "address"
        }
      ],
      "name": "addToken",
      "outputs": [],
      "stateMutability": "nonpayable",
      "type": "function"
    },
    {
      "inputs": [
        {
          "internalType": "uint256",
          "name": "amount",
          "type": "uint256"
        },
        {
          "internalType": "bytes32",
          "name": "ticker",
          "type": "bytes32"
        }
      ],
      "name": "deposit",
      "outputs": [],
      "stateMutability": "nonpayable",
      "type": "function"
    },
    {
      "inputs": [
        {
          "internalType": "uint256",
          "name": "amount",
          "type": "uint256"
        },
        {
          "internalType": "bytes32",
          "name": "ticker",
          "type": "bytes32"
        }
      ],
      "name": "withdraw",
      "outputs": [],
      "stateMutability": "nonpayable",
      "type": "function"
    },
    {
      "inputs": [],
      "name": "depositEth",
      "outputs": [],
      "stateMutability": "payable",
      "type": "function"
    },
    {
      "inputs": [
        {
          "internalType": "uint256",
          "name": "amount",
          "type": "uint256"
        }
      ],
      "name": "withdrawEth",
      "outputs": [],
      "stateMutability": "nonpayable",
      "type": "function"
    }
  ],
  "bytecode": "0x608060405234801561001057600080fd5b5060006100216100c460201b60201c565b9050806000806101000a81548173ffffffffffffffffffffffffffffffffffffffff021916908373ffffffffffffffffffffffffffffffffffffffff1602179055508073ffffffffffffffffffffffffffffffffffffffff16600073ffffffffffffffffffffffffffffffffffffffff167f8be0079c531659141344cd1fd0a4f28419497f9722a3daafe3b4186f6b6457e060405160405180910390a3506100cc565b600033905090565b6115a6806100db6000396000f3fe60806040526004361061009c5760003560e01c80639776aacf116100645780639776aacf146101685780639ead722214610191578063a8d2021a146101ce578063c311d049146101f7578063c9630cb014610220578063f2fde38b146102495761009c565b80631f14df69146100a1578063439370b1146100de578063667cb4ba146100e8578063715018a6146101265780638da5cb5b1461013d575b600080fd5b3480156100ad57600080fd5b506100c860048036038101906100c39190610f80565b610272565b6040516100d591906112ea565b60405180910390f35b6100e6610297565b005b3480156100f457600080fd5b5061010f600480360381019061010a9190610fe5565b610390565b60405161011d929190611221565b60405180910390f35b34801561013257600080fd5b5061013b6103d4565b005b34801561014957600080fd5b5061015261050e565b60405161015f919061118b565b60405180910390f35b34801561017457600080fd5b5061018f600480360381019061018a919061100e565b610537565b005b34801561019d57600080fd5b506101b860048036038101906101b3919061104a565b610672565b6040516101c59190611206565b60405180910390f35b3480156101da57600080fd5b506101f560048036038101906101f09190611073565b610696565b005b34801561020357600080fd5b5061021e6004803603810190610219919061104a565b610950565b005b34801561022c57600080fd5b5061024760048036038101906102429190611073565b610afd565b005b34801561025557600080fd5b50610270600480360381019061026b9190610f57565b610d26565b005b6003602052816000526040600020602052806000526040600020600091509150505481565b61031a34600360003373ffffffffffffffffffffffffffffffffffffffff1673ffffffffffffffffffffffffffffffffffffffff16815260200190815260200160002060007f4554480000000000000000000000000000000000000000000000000000000000815260200190815260200160002054610ecf90919063ffffffff16565b600360003373ffffffffffffffffffffffffffffffffffffffff1673ffffffffffffffffffffffffffffffffffffffff16815260200190815260200160002060007f4554480000000000000000000000000000000000000000000000000000000000815260200190815260200160002081905550565b60016020528060005260406000206000915090508060000154908060010160009054906101000a900473ffffffffffffffffffffffffffffffffffffffff16905082565b6103dc610ee5565b73ffffffffffffffffffffffffffffffffffffffff166103fa61050e565b73ffffffffffffffffffffffffffffffffffffffff1614610450576040517f08c379a00000000000000000000000000000000000000000000000000000000081526004016104479061128a565b60405180910390fd5b600073ffffffffffffffffffffffffffffffffffffffff1660008054906101000a900473ffffffffffffffffffffffffffffffffffffffff1673ffffffffffffffffffffffffffffffffffffffff167f8be0079c531659141344cd1fd0a4f28419497f9722a3daafe3b4186f6b6457e060405160405180910390a360008060006101000a81548173ffffffffffffffffffffffffffffffffffffffff021916908373ffffffffffffffffffffffffffffffffffffffff160217905550565b60008060009054906101000a900473ffffffffffffffffffffffffffffffffffffffff16905090565b61053f610ee5565b73ffffffffffffffffffffffffffffffffffffffff1661055d61050e565b73ffffffffffffffffffffffffffffffffffffffff16146105b3576040517f08c379a00000000000000000000000000000000000000000000000000000000081526004016105aa9061128a565b60405180910390fd5b60405180604001604052808381526020018273ffffffffffffffffffffffffffffffffffffffff16815250600160008481526020019081526020016000206000820151816000015560208201518160010160006101000a81548173ffffffffffffffffffffffffffffffffffffffff021916908373ffffffffffffffffffffffffffffffffffffffff16021790555090505060028290806001815401808255809150506001900390600052602060002001600090919091909150555050565b6002818154811061068257600080fd5b906000526020600020016000915090505481565b80600073ffffffffffffffffffffffffffffffffffffffff166001600083815260200190815260200160002060010160009054906101000a900473ffffffffffffffffffffffffffffffffffffffff1673ffffffffffffffffffffffffffffffffffffffff16141561073d576040517f08c379a0000000000000000000000000000000000000000000000000000000008152600401610734906112ca565b60405180910390fd5b600360003373ffffffffffffffffffffffffffffffffffffffff1673ffffffffffffffffffffffffffffffffffffffff1681526020019081526020016000206000838152602001908152602001600020548311156107d0576040517f08c379a00000000000000000000000000000000000000000000000000000000081526004016107c7906112aa565b60405180910390fd5b61083383600360003373ffffffffffffffffffffffffffffffffffffffff1673ffffffffffffffffffffffffffffffffffffffff168152602001908152602001600020600085815260200190815260200160002054610eed90919063ffffffff16565b600360003373ffffffffffffffffffffffffffffffffffffffff1673ffffffffffffffffffffffffffffffffffffffff1681526020019081526020016000206000848152602001908152602001600020819055506001600083815260200190815260200160002060010160009054906101000a900473ffffffffffffffffffffffffffffffffffffffff1673ffffffffffffffffffffffffffffffffffffffff1663a9059cbb33856040518363ffffffff1660e01b81526004016108f89291906111dd565b602060405180830381600087803b15801561091257600080fd5b505af1158015610926573d6000803e3d6000fd5b505050506040513d601f19601f8201168201806040525081019061094a9190610fbc565b50505050565b80600360003373ffffffffffffffffffffffffffffffffffffffff1673ffffffffffffffffffffffffffffffffffffffff16815260200190815260200160002060007f45544800000000000000000000000000000000000000000000000000000000008152602001908152602001600020541015610a03576040517f08c379a00000000000000000000000000000000000000000000000000000000081526004016109fa9061126a565b60405180910390fd5b610a8681600360003373ffffffffffffffffffffffffffffffffffffffff1673ffffffffffffffffffffffffffffffffffffffff16815260200190815260200160002060007f4554480000000000000000000000000000000000000000000000000000000000815260200190815260200160002054610eed90919063ffffffff16565b600360003373ffffffffffffffffffffffffffffffffffffffff1673ffffffffffffffffffffffffffffffffffffffff16815260200190815260200160002060007f455448000000000000000000000000000000000000000000000000000000000081526020019081526020016000208190555050565b80600073ffffffffffffffffffffffffffffffffffffffff166001600083815260200190815260200160002060010160009054906101000a900473ffffffffffffffffffffffffffffffffffffffff1673ffffffffffffffffffffffffffffffffffffffff161415610ba4576040517f08c379a0000000000000000000000000000000000000000000000000000000008152600401610b9b906112ca565b60405180910390fd5b6001600083815260200190815260200160002060010160009054906101000a900473ffffffffffffffffffffffffffffffffffffffff1673ffffffffffffffffffffffffffffffffffffffff166323b872dd3330866040518463ffffffff1660e01b8152600401610c17939291906111a6565b602060405180830381600087803b158015610c3157600080fd5b505af1158015610c45573d6000803e3d6000fd5b505050506040513d601f19601f82011682018060405250810190610c699190610fbc565b50610ccd83600360003373ffffffffffffffffffffffffffffffffffffffff1673ffffffffffffffffffffffffffffffffffffffff168152602001908152602001600020600085815260200190815260200160002054610ecf90919063ffffffff16565b600360003373ffffffffffffffffffffffffffffffffffffffff1673ffffffffffffffffffffffffffffffffffffffff168152602001908152602001600020600084815260200190815260200160002081905550505050565b610d2e610ee5565b73ffffffffffffffffffffffffffffffffffffffff16610d4c61050e565b73ffffffffffffffffffffffffffffffffffffffff1614610da2576040517f08c379a0000000000000000000000000000000000000000000000000000000008152600401610d999061128a565b60405180910390fd5b600073ffffffffffffffffffffffffffffffffffffffff168173ffffffffffffffffffffffffffffffffffffffff161415610e12576040517f08c379a0000000000000000000000000000000000000000000000000000000008152600401610e099061124a565b60405180910390fd5b8073ffffffffffffffffffffffffffffffffffffffff1660008054906101000a900473ffffffffffffffffffffffffffffffffffffffff1673ffffffffffffffffffffffffffffffffffffffff167f8be0079c531659141344cd1fd0a4f28419497f9722a3daafe3b4186f6b6457e060405160405180910390a3806000806101000a81548173ffffffffffffffffffffffffffffffffffffffff021916908373ffffffffffffffffffffffffffffffffffffffff16021790555050565b60008183610edd9190611316565b905092915050565b600033905090565b60008183610efb919061136c565b905092915050565b600081359050610f1281611514565b92915050565b600081519050610f278161152b565b92915050565b600081359050610f3c81611542565b92915050565b600081359050610f5181611559565b92915050565b600060208284031215610f6957600080fd5b6000610f7784828501610f03565b91505092915050565b60008060408385031215610f9357600080fd5b6000610fa185828601610f03565b9250506020610fb285828601610f2d565b9150509250929050565b600060208284031215610fce57600080fd5b6000610fdc84828501610f18565b91505092915050565b600060208284031215610ff757600080fd5b600061100584828501610f2d565b91505092915050565b6000806040838503121561102157600080fd5b600061102f85828601610f2d565b925050602061104085828601610f03565b9150509250929050565b60006020828403121561105c57600080fd5b600061106a84828501610f42565b91505092915050565b6000806040838503121561108657600080fd5b600061109485828601610f42565b92505060206110a585828601610f2d565b9150509250929050565b6110b8816113a0565b82525050565b6110c7816113be565b82525050565b60006110da602683611305565b91506110e582611421565b604082019050919050565b60006110fd601283611305565b915061110882611470565b602082019050919050565b6000611120602083611305565b915061112b82611499565b602082019050919050565b6000611143601483611305565b915061114e826114c2565b602082019050919050565b6000611166601483611305565b9150611171826114eb565b602082019050919050565b611185816113e8565b82525050565b60006020820190506111a060008301846110af565b92915050565b60006060820190506111bb60008301866110af565b6111c860208301856110af565b6111d5604083018461117c565b949350505050565b60006040820190506111f260008301856110af565b6111ff602083018461117c565b9392505050565b600060208201905061121b60008301846110be565b92915050565b600060408201905061123660008301856110be565b61124360208301846110af565b9392505050565b60006020820190508181036000830152611263816110cd565b9050919050565b60006020820190508181036000830152611283816110f0565b9050919050565b600060208201905081810360008301526112a381611113565b9050919050565b600060208201905081810360008301526112c381611136565b9050919050565b600060208201905081810360008301526112e381611159565b9050919050565b60006020820190506112ff600083018461117c565b92915050565b600082825260208201905092915050565b6000611321826113e8565b915061132c836113e8565b9250827fffffffffffffffffffffffffffffffffffffffffffffffffffffffffffffffff03821115611361576113606113f2565b5b828201905092915050565b6000611377826113e8565b9150611382836113e8565b925082821015611395576113946113f2565b5b828203905092915050565b60006113ab826113c8565b9050919050565b60008115159050919050565b6000819050919050565b600073ffffffffffffffffffffffffffffffffffffffff82169050919050565b6000819050919050565b7f4e487b7100000000000000000000000000000000000000000000000000000000600052601160045260246000fd5b7f4f776e61626c653a206e6577206f776e657220697320746865207a65726f206160008201527f6464726573730000000000000000000000000000000000000000000000000000602082015250565b7f496e7375666669656e742062616c616e63650000000000000000000000000000600082015250565b7f4f776e61626c653a2063616c6c6572206973206e6f7420746865206f776e6572600082015250565b7f496e73756666696369656e742042616c616e6365000000000000000000000000600082015250565b7f546f6b656e20646f6573206e6f74204578697374000000000000000000000000600082015250565b61151d816113a0565b811461152857600080fd5b50565b611534816113b2565b811461153f57600080fd5b50565b61154b816113be565b811461155657600080fd5b50565b611562816113e8565b811461156d57600080fd5b5056fea2646970667358221220c5a9d7bd2491dc9f0058fce40187bdd58eee08d61f51381dd28aba3eecc2bb2a64736f6c63430008040033",
  "immutableReferences": {},
  "source": "// SPDX-License-Identifier: MIT\r\npragma solidity 0.8.4;\r\n\r\nimport \"../node_modules/@openzeppelin/contracts/token/ERC20/IERC20.sol\";\r\nimport \"../node_modules/@openzeppelin/contracts/utils/math/SafeMath.sol\";\r\nimport \"../node_modules/@openzeppelin/contracts/access/Ownable.sol\";\r\n\r\ncontract Wallet is Ownable{\r\n    using SafeMath for uint256;\r\n    struct Token{\r\n        bytes32 ticker;\r\n        address tokenAddress;\r\n    }\r\n    mapping(bytes32 => Token) public tokenMapping;\r\n    bytes32[] public tokenList;\r\n    mapping(address => mapping(bytes32=>uint256)) public balances;\r\n    modifier tokenExist(bytes32 ticker){\r\n        require(tokenMapping[ticker].tokenAddress != address(0),\"Token does not Exist\");\r\n        _;\r\n    }\r\n\r\n    function addToken(bytes32 ticker, address tokenAddress)onlyOwner external{\r\n        tokenMapping[ticker]=Token(ticker, tokenAddress);\r\n        tokenList.push(ticker);\r\n    }\r\n    function deposit(uint amount, bytes32 ticker)tokenExist(ticker) external{\r\n        \r\n        IERC20(tokenMapping[ticker].tokenAddress).transferFrom(msg.sender,address(this),amount);\r\n        balances[msg.sender][ticker]=balances[msg.sender][ticker].add(amount);\r\n    }\r\n    function withdraw(uint amount,  bytes32 ticker)tokenExist(ticker) external{\r\n        require(amount <= balances[msg.sender][ticker], \"Insufficient Balance\");\r\n        balances[msg.sender][ticker]=balances[msg.sender][ticker].sub(amount);\r\n        IERC20(tokenMapping[ticker].tokenAddress).transfer(msg.sender, amount);\r\n    }\r\n    function depositEth() payable external {\r\n        balances[msg.sender][bytes32(\"ETH\")] = balances[msg.sender][bytes32(\"ETH\")].add(msg.value);\r\n    }\r\n    \r\n    function withdrawEth(uint amount) external {\r\n        require(balances[msg.sender][bytes32(\"ETH\")] >= amount,'Insuffient balance'); \r\n        balances[msg.sender][bytes32(\"ETH\")] = balances[msg.sender][bytes32(\"ETH\")].sub(amount);\r\n        //msg.sender.call{value:amount}(\"\");\r\n    }\r\n}",
  "sourcePath": "C:\\Users\\hp\\Desktop\\Ethereum\\Solidity\\Dex\\contracts\\wallet.sol",
  "compiler": {
    "name": "solc",
    "version": "0.8.4+commit.c7e474f2.Emscripten.clang"
  },
  "schemaVersion": "3.4.1",
  "updatedAt": "2021-06-04T07:06:02.621Z",
  "devdoc": {
    "kind": "dev",
    "methods": {
      "owner()": {
        "details": "Returns the address of the current owner."
      },
      "renounceOwnership()": {
        "details": "Leaves the contract without owner. It will not be possible to call `onlyOwner` functions anymore. Can only be called by the current owner. NOTE: Renouncing ownership will leave the contract without an owner, thereby removing any functionality that is only available to the owner."
      },
      "transferOwnership(address)": {
        "details": "Transfers ownership of the contract to a new account (`newOwner`). Can only be called by the current owner."
      }
    },
    "version": 1
  },
  "userdoc": {
    "kind": "user",
    "methods": {},
    "version": 1
  }
}